{
  "_format": "hh-sol-artifact-1",
  "contractName": "HelloWorld",
  "sourceName": "contracts/HelloWorld.sol",
  "abi": [
    {
      "inputs": [
        {
          "internalType": "string",
          "name": "initialMessage",
          "type": "string"
        }
      ],
      "stateMutability": "nonpayable",
      "type": "constructor"
    },
    {
      "anonymous": false,
      "inputs": [
        {
          "indexed": false,
          "internalType": "string",
          "name": "oldStr",
          "type": "string"
        },
        {
          "indexed": false,
          "internalType": "string",
          "name": "newStr",
          "type": "string"
        }
      ],
      "name": "UpdatedMessage",
      "type": "event"
    },
    {
      "inputs": [],
      "name": "message",
      "outputs": [
        {
          "internalType": "string",
          "name": "",
          "type": "string"
        }
      ],
      "stateMutability": "view",
      "type": "function"
    },
    {
      "inputs": [
        {
          "internalType": "string",
          "name": "newMessage",
          "type": "string"
        }
      ],
      "name": "update",
      "outputs": [],
      "stateMutability": "nonpayable",
      "type": "function"
    }
  ],
  "bytecode": "0x60806040523480156200001157600080fd5b5060405162000ced38038062000ced8339818101604052810190620000379190620001e3565b80600090816200004891906200047f565b505062000566565b6000604051905090565b600080fd5b600080fd5b600080fd5b600080fd5b6000601f19601f8301169050919050565b7f4e487b7100000000000000000000000000000000000000000000000000000000600052604160045260246000fd5b620000b9826200006e565b810181811067ffffffffffffffff82111715620000db57620000da6200007f565b5b80604052505050565b6000620000f062000050565b9050620000fe8282620000ae565b919050565b600067ffffffffffffffff8211156200012157620001206200007f565b5b6200012c826200006e565b9050602081019050919050565b60005b83811015620001595780820151818401526020810190506200013c565b60008484015250505050565b60006200017c620001768462000103565b620000e4565b9050828152602081018484840111156200019b576200019a62000069565b5b620001a884828562000139565b509392505050565b600082601f830112620001c857620001c762000064565b5b8151620001da84826020860162000165565b91505092915050565b600060208284031215620001fc57620001fb6200005a565b5b600082015167ffffffffffffffff8111156200021d576200021c6200005f565b5b6200022b84828501620001b0565b91505092915050565b600081519050919050565b7f4e487b7100000000000000000000000000000000000000000000000000000000600052602260045260246000fd5b600060028204905060018216806200028757607f821691505b6020821081036200029d576200029c6200023f565b5b50919050565b60008190508160005260206000209050919050565b60006020601f8301049050919050565b600082821b905092915050565b600060088302620003077fffffffffffffffffffffffffffffffffffffffffffffffffffffffffffffffff82620002c8565b620003138683620002c8565b95508019841693508086168417925050509392505050565b6000819050919050565b6000819050919050565b6000620003606200035a62000354846200032b565b62000335565b6200032b565b9050919050565b6000819050919050565b6200037c836200033f565b620003946200038b8262000367565b848454620002d5565b825550505050565b600090565b620003ab6200039c565b620003b881848462000371565b505050565b5b81811015620003e057620003d4600082620003a1565b600181019050620003be565b5050565b601f8211156200042f57620003f981620002a3565b6200040484620002b8565b8101602085101562000414578190505b6200042c6200042385620002b8565b830182620003bd565b50505b505050565b600082821c905092915050565b6000620004546000198460080262000434565b1980831691505092915050565b60006200046f838362000441565b9150826002028217905092915050565b6200048a8262000234565b67ffffffffffffffff811115620004a657620004a56200007f565b5b620004b282546200026e565b620004bf828285620003e4565b600060209050601f831160018114620004f75760008415620004e2578287015190505b620004ee858262000461565b8655506200055e565b601f1984166200050786620002a3565b60005b8281101562000531578489015182556001820191506020850194506020810190506200050a565b868310156200055157848901516200054d601f89168262000441565b8355505b6001600288020188555050505b505050505050565b61077780620005766000396000f3fe608060405234801561001057600080fd5b50600436106100365760003560e01c80633d7403a31461003b578063e21f37ce14610057575b600080fd5b61005560048036038101906100509190610338565b610075565b005b61005f610150565b60405161006c9190610400565b60405180910390f35b600080805461008390610451565b80601f01602080910402602001604051908101604052809291908181526020018280546100af90610451565b80156100fc5780601f106100d1576101008083540402835291602001916100fc565b820191906000526020600020905b8154815290600101906020018083116100df57829003601f168201915b5050505050905081600090816101129190610638565b507fcb85bf7f2ecdbde56164032ff593313842ea00f0afc05fe919fc979a7d00be50818360405161014492919061070a565b60405180910390a15050565b6000805461015d90610451565b80601f016020809104026020016040519081016040528092919081815260200182805461018990610451565b80156101d65780601f106101ab576101008083540402835291602001916101d6565b820191906000526020600020905b8154815290600101906020018083116101b957829003601f168201915b505050505081565b6000604051905090565b600080fd5b600080fd5b600080fd5b600080fd5b6000601f19601f8301169050919050565b7f4e487b7100000000000000000000000000000000000000000000000000000000600052604160045260246000fd5b610245826101fc565b810181811067ffffffffffffffff821117156102645761026361020d565b5b80604052505050565b60006102776101de565b9050610283828261023c565b919050565b600067ffffffffffffffff8211156102a3576102a261020d565b5b6102ac826101fc565b9050602081019050919050565b82818337600083830152505050565b60006102db6102d684610288565b61026d565b9050828152602081018484840111156102f7576102f66101f7565b5b6103028482856102b9565b509392505050565b600082601f83011261031f5761031e6101f2565b5b813561032f8482602086016102c8565b91505092915050565b60006020828403121561034e5761034d6101e8565b5b600082013567ffffffffffffffff81111561036c5761036b6101ed565b5b6103788482850161030a565b91505092915050565b600081519050919050565b600082825260208201905092915050565b60005b838110156103bb5780820151818401526020810190506103a0565b60008484015250505050565b60006103d282610381565b6103dc818561038c565b93506103ec81856020860161039d565b6103f5816101fc565b840191505092915050565b6000602082019050818103600083015261041a81846103c7565b905092915050565b7f4e487b7100000000000000000000000000000000000000000000000000000000600052602260045260246000fd5b6000600282049050600182168061046957607f821691505b60208210810361047c5761047b610422565b5b50919050565b60008190508160005260206000209050919050565b60006020601f8301049050919050565b600082821b905092915050565b6000600883026104e47fffffffffffffffffffffffffffffffffffffffffffffffffffffffffffffffff826104a7565b6104ee86836104a7565b95508019841693508086168417925050509392505050565b6000819050919050565b6000819050919050565b600061053561053061052b84610506565b610510565b610506565b9050919050565b6000819050919050565b61054f8361051a565b61056361055b8261053c565b8484546104b4565b825550505050565b600090565b61057861056b565b610583818484610546565b505050565b5b818110156105a75761059c600082610570565b600181019050610589565b5050565b601f8211156105ec576105bd81610482565b6105c684610497565b810160208510156105d5578190505b6105e96105e185610497565b830182610588565b50505b505050565b600082821c905092915050565b600061060f600019846008026105f1565b1980831691505092915050565b600061062883836105fe565b9150826002028217905092915050565b61064182610381565b67ffffffffffffffff81111561065a5761065961020d565b5b6106648254610451565b61066f8282856105ab565b600060209050601f8311600181146106a25760008415610690578287015190505b61069a858261061c565b865550610702565b601f1984166106b086610482565b60005b828110156106d8578489015182556001820191506020850194506020810190506106b3565b868310156106f557848901516106f1601f8916826105fe565b8355505b6001600288020188555050505b505050505050565b6000604082019050818103600083015261072481856103c7565b9050818103602083015261073881846103c7565b9050939250505056fea2646970667358221220cda6572cf24a33279737444d41bbaef56346964b83bcbac2254a772310dee42b64736f6c63430008180033",
  "linkReferences": {},
  "deployedLinkReferences": {}
}